{
  "contractName": "InvestmentDashboard",
  "abi": [
    {
      "inputs": [],
      "name": "depositAmount",
      "outputs": [
        {
          "internalType": "uint256",
          "name": "",
          "type": "uint256"
        }
      ],
      "stateMutability": "view",
      "type": "function",
      "constant": true
    },
    {
      "inputs": [],
      "name": "withdrawAmount",
      "outputs": [
        {
          "internalType": "uint256",
          "name": "",
          "type": "uint256"
        }
      ],
      "stateMutability": "view",
      "type": "function",
      "constant": true
    },
    {
      "inputs": [
        {
          "internalType": "uint256",
          "name": "amount",
          "type": "uint256"
        }
      ],
      "name": "deposit",
      "outputs": [],
      "stateMutability": "nonpayable",
      "type": "function"
    },
    {
      "inputs": [
        {
          "internalType": "uint256",
          "name": "amount",
          "type": "uint256"
        }
      ],
      "name": "withdraw",
      "outputs": [],
      "stateMutability": "nonpayable",
      "type": "function"
    },
    {
      "inputs": [],
      "name": "getDepositAmount",
      "outputs": [
        {
          "internalType": "uint256",
          "name": "",
          "type": "uint256"
        }
      ],
      "stateMutability": "view",
      "type": "function",
      "constant": true
    },
    {
      "inputs": [],
      "name": "getWithdrawAmount",
      "outputs": [
        {
          "internalType": "uint256",
          "name": "",
          "type": "uint256"
        }
      ],
      "stateMutability": "view",
      "type": "function",
      "constant": true
    }
  ],
  "bytecode": "0x608060405234801561001057600080fd5b50610598806100206000396000f3fe608060405234801561001057600080fd5b50600436106100625760003560e01c8063027932f9146100675780632e1a7d4d14610085578063419759f5146100a1578063534844a2146100bf5780637d96f693146100dd578063b6b55f25146100fb575b600080fd5b61006f610117565b60405161007c9190610269565b60405180910390f35b61009f600480360381019061009a91906102b5565b610121565b005b6100a96101dd565b6040516100b69190610269565b60405180910390f35b6100c76101e3565b6040516100d49190610269565b60405180910390f35b6100e56101e9565b6040516100f29190610269565b60405180910390f35b610115600480360381019061011091906102b5565b6101f2565b005b6000600154905090565b60008111610164576040517f08c379a000000000000000000000000000000000000000000000000000000000815260040161015b90610365565b60405180910390fd5b6000548111156101a9576040517f08c379a00000000000000000000000000000000000000000000000000000000081526004016101a0906103f7565b60405180910390fd5b80600160008282546101bb9190610446565b92505081905550806000808282546101d3919061049c565b9250508190555050565b60005481565b60015481565b60008054905090565b60008111610235576040517f08c379a000000000000000000000000000000000000000000000000000000000815260040161022c90610542565b60405180910390fd5b806000808282546102469190610446565b9250508190555050565b6000819050919050565b61026381610250565b82525050565b600060208201905061027e600083018461025a565b92915050565b600080fd5b61029281610250565b811461029d57600080fd5b50565b6000813590506102af81610289565b92915050565b6000602082840312156102cb576102ca610284565b5b60006102d9848285016102a0565b91505092915050565b600082825260208201905092915050565b7f5769746864726177616c20616d6f756e74206d7573742062652067726561746560008201527f72207468616e207a65726f2e0000000000000000000000000000000000000000602082015250565b600061034f602c836102e2565b915061035a826102f3565b604082019050919050565b6000602082019050818103600083015261037e81610342565b9050919050565b7f496e73756666696369656e742066756e647320666f722077697468647261776160008201527f6c2e000000000000000000000000000000000000000000000000000000000000602082015250565b60006103e16022836102e2565b91506103ec82610385565b604082019050919050565b60006020820190508181036000830152610410816103d4565b9050919050565b7f4e487b7100000000000000000000000000000000000000000000000000000000600052601160045260246000fd5b600061045182610250565b915061045c83610250565b9250827fffffffffffffffffffffffffffffffffffffffffffffffffffffffffffffffff0382111561049157610490610417565b5b828201905092915050565b60006104a782610250565b91506104b283610250565b9250828210156104c5576104c4610417565b5b828203905092915050565b7f4465706f73697420616d6f756e74206d7573742062652067726561746572207460008201527f68616e207a65726f2e0000000000000000000000000000000000000000000000602082015250565b600061052c6029836102e2565b9150610537826104d0565b604082019050919050565b6000602082019050818103600083015261055b8161051f565b905091905056fea264697066735822122082ea9789ce8359a400dd22fb677f14b3ab1b0950f53fb7ac4847b789ab6d5cdd64736f6c634300080f0033",
  "immutableReferences": {},
  "source": "// SPDX-License-Identifier: MIT\n\npragma solidity ^0.8.0;\n\ncontract InvestmentDashboard {\n    uint public depositAmount;\n    uint public withdrawAmount;\n\n    function deposit(uint amount) public {\n        require(amount > 0, \"Deposit amount must be greater than zero.\");\n        depositAmount += amount;\n    }\n\n    function withdraw(uint amount) public {\n        require(amount > 0, \"Withdrawal amount must be greater than zero.\");\n        require(amount <= depositAmount, \"Insufficient funds for withdrawal.\");\n        withdrawAmount += amount;\n        depositAmount -= amount;\n    }\n\n    function getDepositAmount() public view returns (uint) {\n        return depositAmount;\n    }\n\n    function getWithdrawAmount() public view returns (uint) {\n        return withdrawAmount;\n    }\n}\n",
  "sourcePath": "C:\\study\\DyeusFinal\\contracts\\InvestmentDashboard.sol",
  "compiler": {
    "name": "solc",
    "version": "0.8.15+commit.e14f2714.Emscripten.clang"
  },
  "schemaVersion": "3.4.7",
  "updatedAt": "2023-05-01T05:32:05.229Z",
  "networkType": "ethereum",
  "devdoc": {
    "kind": "dev",
    "methods": {},
    "version": 1
  },
  "userdoc": {
    "kind": "user",
    "methods": {},
    "version": 1
  }
}